S0140000747261666669636C696768742E7372656319
S11300000C942A000C9420010C943C000C943C00A9
S11300100C943C000C943C000C943C000C943C006C
S11300200C943C000C943C000C943C000C943C005C
S11300300C943C000C943C000C943C000C943C004C
S11300400C943C000C943C000C943C000C943C003C
S11300500C943C0011241FBECFE5D8E0DEBFCDBF19
S113006020E0A0E6B0E001C01D92A736B207E1F798
S11300700E947D010C942E020C94000062E084E442
S11300800E946D0160E081E40E94710161E081E4FD
S11300900E94710162E081E40E94710160E082E4E7
S11300A00E94710161E081E40E94710162E081E4D7
S11300B00E9471018FB780688FBF0E940C020E945A
S11300C008020E94040280916100909162008130D4
S11300D0910521F120F0029709F457C0F4CF60E0B4
S11300E081E40E9475010E94150260E081E40E948F
S11300F0790161E081E40E9475010E94150261E0CA
S113010081E40E94790162E081E40E9475010E9409
S1130110150262E081E40E947901D5CF62E081E4B6
S11301200E94750160E082E40E9475010E9415023C
S113013062E081E40E94790161E081E40E9475013A
S113014061E082E40E9475010E94150261E081E48D
S11301500E94790161E082E40E94790160E082E416
S11301600E94790160E081E40E94750162E082E40A
S11301700E9475010E94150262E082E40E947901E6
S113018010926200109261009ECF62E082E40E94AD
S1130190750160E081E40E9475010E94150262E02D
S11301A082E40E94790160E081E40E94790161E0C7
S11301B081E40E94750161E082E40E9475010E945D
S11301C0150261E081E40E94790161E081E40E940A
S11301D0790162E081E40E94750160E082E40E949A
S11301E075010E94150262E081E40E94790161E0D8
S11301F081E40E94750161E082E40E9475010E941D
S1130200150261E081E40E94790161E081E40E94C9
S1130210790160E082E40E94790160E081E40E9457
S1130220750162E082E40E9475010E94150262E099
S113023082E40E947901109262001092610043CF1F
S11302401F920F920FB60F9211242F933F934F9347
S11302505F936F937F938F939F93AF93BF93EF932A
S1130260FF9346E650E062E081E40E94E40145E643
S113027050E061E081E40E94E40140E650E060E087
S113028081E40E94E40180916600811107C081E04D
S113029090E090936200809361000EC080916000B2
S11302A0882321F080916500811106C082E090E0EE
S11302B09093620080936100FF91EF91BF91AF91A1
S11302C09F918F917F916F915F914F913F912F916A
S11302D00F900FBE0F901F90189540E00E949A0156
S11302E0089541E00E949A01089541E00E94BF01EF
S11302F0089540E00E94BF0108950E943E0080E0FE
S113030090E00895823499F018F4813469F00BC0B8
S1130310833419F0843421F006C083E390E0089517
S113032080E390E00895089589E390E0089586E3DA
S113033090E00895CF93DF93D62FC42F0E948201BB
S1130340C1110DC0FC01418121E030E002C0220F47
S1130350331FDA95E2F72095242321830DC0C130A1
S113036059F4FC01418121E030E002C0220F331F27
S1130370DA95E2F7242B2183DF91CF910895CF936F
S1130380DF93D62FC42F0E948201C1110DC0FC013E
S1130390428121E030E00D2E02C0220F331F0A9467
S11303A0E2F7209524232283C13059F4FC014281D1
S11303B021E030E002C0220F331FDA95E2F7242B4C
S11303C02283DF91CF9108951F93CF93DF93162F4C
S11303D0EA010E948201FC01408181E090E09C01DD
S11303E0012E02C0220F331F0A94E2F7842F90E0FB
S11303F08223932302C0959587951A95E2F7888303
S1130400DF91CF911F9108958BB780648BBF0895BE
S113041085B7836085BF089513BE12BE089583B760
S1130420856083BF089513BE08950E940F0208C01B
S113043008B600FEFDCF019690936400809363009C
S113044080916300909164008331910588F3109248
S11304506400109263000E9413020895F894FFCF81
S9030000FC
